:02000000E228F4
:100008007E1480310B1C09280A28BD2820001708F7
:10001800F7001608F60096019701270093012000C3
:100028004B18172818284F2800307702C0300319BA
:100038007602031C2028212833280130770201305A
:1000480003197602031829282A283328CB182D28C3
:100058002E2833280130F5007508F807E02800300D
:10006800770281300319760203183B283C28402880
:10007800CB1C3F284028E0280C307802031C452878
:100088004628BC284B080138CB004B08FD39CB006B
:10009800F801F901E0284B1C52285328E0280830C1
:1000A8007802031858285928832800307702C0306E
:1000B80003197602031C612862287228013077022E
:1000C80001300319760203186A286B287228CB18A6
:1000D8006E286F2872280314F90D2E280030770235
:1000E80081300319760203187A287B287F28CB1CD5
:1000F8007E287F282E287935FE39F9002E280030F1
:100108007702C03003197602031C8B288C28A62896
:1001180001307702013003197602031894289528D4
:10012800A628CB1898289928A6284A08A03E860011
:100138008701790881004B080438CB004B08FE3949
:10014800CB00BA2820304A06031DAB28AC28AD28BE
:10015800CA014A08A03E86008701790881004B0839
:10016800FB39CB000130F5007508CA07F801E02813
:10017800E0282000111CC128C228C72891014B087B
:100188000238CB00E028121ECA28CB28E028121219
:1001980002303006031DD128D228D5280330B000FC
:1001A800DD2804303006031DDA28DB28DD28053079
:1001B800B0008231B52280317E100900E328053075
:1001C800840085308500203086000030870020308C
:1001D800853125258031F801F901CA01CB017E104E
:1001E8002000602C8B132000C401982A44083C3E50
:1001F80086008701010803190229032924293308E5
:1002080023009200200032082300910020003108CA
:10021800230095001518112912290E2920004435AC
:10022800343E8600870123001308C03F1408C13FED
:100238008B17200044083C3E860087018101B42AC0
:100248000130C0004008C407330823009200200092
:1002580032082300910001302000B2070030B33D7E
:1002680004304402031C39293A29FA28B42A4408DC
:100278003C3E860087010108031943294429642963
:100288003308230092002000320823009100200048
:10029800310823009500151415185329542950299D
:1002A80020004435343E8600870123001308C03FF0
:1002B8001408C13F200044083C3E860087018101A4
:1002C8000130B2070030B33D04304402031C6D29ED
:1002D8006E293B298B17B42A8B133308C3003208C5
:1002E800C20044083C3E86008701010803197D29A5
:1002F8007E29962933082300920020003208230023
:10030800910020004435343E86008701403F230099
:100318009300413F94006430950055309600AA3010
:100328009600951401302000C0004008C407013031
:10033800B2070030B33D04304402031CA429A529A8
:1003480075294308B3004208B200443023009500E1
:1003580055309600AA3096009514000000008B17BF
:10036800B42A8B1344083C3E860087010108031910
:10037800BE29BF29EF293308230092002000320844
:1003880023009100413095001518CB29CC29C829A4
:1003980020004435343E86008701403FC000413F7D
:1003A800C1002300140820004106031DDF29230093
:1003B8001308200040060319E229E329EA29440822
:1003C8003C3E86008701FF308100EF2944083C3E0F
:1003D8008600870181010130C0004008C407013050
:1003E800B2070030B33D04304402031CFC29FD2948
:1003F800B6298B17B42A44083C3E860087010108B9
:100408000319072A082A242A330823009200200007
:1004180032082300910020004435343E86008701CD
:10042800403F23009300413F9400443095005530ED
:100438009600AA3096009514000000008B17B42A85
:100448000130C0004008C407330823009200200090
:1004580032082300910001302000B2070030B33D7C
:1004680004304402031C392A3A2AFF298B17B42A7C
:1004780044083C3E8600870101080319442A452A9E
:10048800802A3308230092002000320823009100BC
:10049800013095001518512A522A4E2A2000443559
:1004A800343E8600870123001308C03F1408C13F6B
:1004B80020004435343E86008701403FC000413F5C
:1004C800C1002300140820004106031D6F2A2300E1
:1004D8001308200040060319722A732A7A2A44084E
:1004E8003C3E86008701FF308100B42A44083C3E28
:1004F800860087018101B42A0130C0004008C40782
:1005080033082300920020003208230091000130B4
:100518002000B2070030B33D04304402031C952A82
:10052800962A3C2A8B17B42A3008C000C10141081A
:10053800003A0319A02AB42A4008003A0319FA28F5
:10054800013A03193B29033A03197029013A03199F
:10055800B529073A0319FF29013A03193C2AB42A95
:1005680008008B13F401422C74083C3E8600870176
:1005780001080319C02AC12ADF2A33082300920080
:100588002000320823009100200031082300950044
:100598001518CF2AD02ACC2A7435343E8600870114
:1005A8001308C03F1408C13F8B1774083C3E8600EF
:1005B800870181015F2C0130F0007008F4073308CF
:1005C800230092002000320823009100013020000F
:1005D800B2070030B33D04307402031CF42AF52A34
:1005E800B82A5F2C74083C3E86008701010803196D
:1005F800FE2AFF2A1C2B3308230092002000320811
:1006080023009100200031082300950015141518C7
:100618000E2B0F2B0B2B7435343E860087011308E5
:10062800C03F1408C13F74083C3E86008701810121
:1006380001302000B2070030B33D04307402031CBF
:10064800262B272BF62A8B175F2C8B133308F300E6
:100658003208F20074083C3E86008701010803193D
:10066800362B372B4D2B33082300920020003208FD
:10067800230091007435343E86008701403F930083
:10068800413F94006430950055309600AA3096009A
:1006980095140130F0007008F40701302000B2070B
:1006A8000030B33D04307402031C5B2B5C2B2E2BF3
:1006B8007308B3007208B200443023009500553027
:1006C8009600AA3096009514000000008B175F2C46
:1006D8008B1374083C3E8600870101080319752BAB
:1006E800762BA12B33082300920020003208230028
:1006F8009100413095001518822B832B7F2B743580
:10070800343E86008701403FF000413FF100140865
:100718007106031D912B130870060319942B952B52
:100728009C2B74083C3E86008701FF308100A12B7A
:1007380074083C3E8600870181010130F000700892
:10074800F40701302000B2070030B33D04307402D2
:10075800031CAF2BB02B6D2B8B175F2C74083C3E02
:100768008600870101080319BA2BBB2BD52B330848
:100778002300920020003208230091007435343E93
:1007880086008701403F9300413F94004430950024
:1007980055309600AA3096009514000000008B177B
:1007A8005F2C0130F0007008F40733082300920032
:1007B800200032082300910001302000B2070030E9
:1007C800B33D04307402031CEA2BEB2BB22B8B17BE
:1007D8005F2C74083C3E8600870101080319F52B3D
:1007E800F62B2A2C3308230092002000320823001D
:1007F8009100013095001518022C032CFF2B74353D
:10080800343E860087011308C03F1408C13F743581
:10081800343E86008701403FF000413FF100140854
:100828007106031D192C1308700603191C2C1D2CA6
:10083800242C74083C3E86008701FF3081005F2C21
:1008480074083C3E8600870181015F2C0130F0006E
:100858007008F407330823009200200032082300B0
:10086800910001302000B2070030B33D043074021B
:10087800031C3F2C402CED2B8B175F2C20003008DD
:10088800F000F1017108003A03194B2C5F2C700835
:10089800003A0319B82A013A0319F62A033A031948
:1008A800292B013A03196C2B073A0319B22B013A89
:1008B8000319ED2B5F2C08007230210099002300EA
:1008C8008C01043021008C0020008C0103302200B0
:1008D8009D00C8308B000430270091008130210032
:1008E8009100103092000130200098000F30250050
:1008F800930001309600193020009B003F302500FE
:100908009100043020009C000230B0008031F620B5
:10091800843120004B1D912C922C8D2CFB30C5006E
:100928004508CB05210020082000C90007304A02ED
:1009380003189F2CA02C8D2CC701C70AAE2C4A087F
:10094800A03E8600870101084906C9000130C5009C
:100958004508C7074A084702031CB32CB42CA32C2C
:100968004A08A03E8600870101084906031DBD2CE0
:10097800BE2C8D2C210021082000C5000530C5366D
:10098800890BC32C4508C80021002008031DCD2C65
:10099800CE2CD92C20004835203E86008701413FC7
:1009A8008A00403F0A0084318D2C803020020318D1
:1009B800DE2CDF2C8D2C2000B201B301B0014030B9
:1009C800B100AA30BC008031F62084312100200813
:1009D8002000C500C60135084606031DF52C34085D
:1009E8004506031DF82CF92C032D4835203E8600BA
:1009F8008701413F8A00403F0A0085318D2C8D2CAC
:100A0800E22832340534323405343334053433348F
:100A1800053431340534313405340034003430348D
:100A280005340634FF340034003455340034FF34C0
:100A38000F34FF340F34FF340F34AA340034003439
:100A48000034FE0012001E00FE0B262D00347F34F9
:100A5800BF34E734FC34FE340800080008000800FE
:020000040001F9
:08000000FF3FFF3FFF3FFF3F00
:04000E00840FFF1A42
:00000001FF
