:02000000EC28EA
:100008007E1480312000111D0A280B28CA2891016E
:100018009701960125001208F7001108F6007318D9
:10002800162817285D287708803AF5008030750271
:10003800031D2028C0307602031C232824283A28D0
:100048007708803AF50081307502031D2D280130AC
:1000580076020318302831283A28F318342835282E
:100068003A280130F0070030F13DEA287708803A55
:10007800F50080307502031D43288130760203188D
:10008800462847284B28F31C4A284B28EA280030E2
:1000980071020C3003197002031C53285428C92814
:1000A80073080138F3007308FD39F300F001F1011A
:1000B800EA28731C60286128EA2800307102083099
:1000C80003197002031869286A28A0287708803A5B
:1000D800F50080307502031D7328C0307602031CBA
:1000E800762877288B287708803AF50081307502C2
:1000F800031D8028013076020318832884288B2862
:10010800F318872888288B280314F20D35287708D8
:10011800803AF50080307502031D942881307602FC
:100128000318972898289C28F31C9B289C28352876
:100138007235FE39F20035287708803AF5008030AC
:100148007502031DA928C0307602031CAC28AD280F
:10015800C5287708803AF50081307502031DB62856
:10016800013076020318B928BA28C528F318BD2823
:10017800BE28C52873080438F3007308FE39F30055
:100188005A287308FB39F3005A28EA28111CCD288D
:10019800CE28D328910173080238F300EA28121EEA
:1001A800D628D728EA287403031DDB28DC28DF2893
:1001B8000230F400EA2803307406031DE428E52819
:1001C800E8280430F400EA280530F4007E1009001D
:1001D800ED28F001F101F201F301F4017E10200095
:1001E800F52872302100990023008C010430210089
:1001F8008C0020008C01C0308B00853021009100DC
:10020800103092000530250093000130200098003E
:0602180000000C29EC2897
:020000040001F9
:08000000FF3FFF3FFF3FFF3F00
:04000E00840FFF1A42
:00000001FF
