:020000002C28AA
:100008007E1480318B1C09280A281D2871180D2898
:100018000E281D288B100130F2007208F0070F30EF
:100028007006031D182819282A28F101F10AF00181
:100038002A288B1C202821282A28711824282528BA
:100048002A288B10F101103020008C067E10090040
:100058002D28F001F1017E10200032287230210095
:10006800990023008C01023021008C0020008C01B3
:0E007800F0308B00C0302100950041282C286C
:020000040001F9
:08000000FF3FFF3FFF3FFF3F00
:04000E00840FFF1A42
:00000001FF
