:02000000F828DE
:100008007E1480310B1C09280A28CD2820001708E7
:10001800F7001608F60096019701270093012000C3
:100028004A1817281828532800307702C0300319B7
:100038007602031C2028212833280130770201305A
:1000480003197602031829282A283328CA182D28C4
:100058002E2833280130F5007508F807F6280030F7
:10006800770281300319760203183B283C28402880
:10007800CA1C3F284028F6280C307802031C452863
:100088004628CC284A080138F5007508CA004A08ED
:10009800FD39F5007508CA00F801F901F6284A1C6F
:1000A80056285728F6280830780203185C285D2857
:1000B800892800307702C03003197602031C6528AE
:1000C8006628762801307702013003197602031872
:1000D8006E286F287628CA18722873287628031481
:1000E800F90D2E28003077028130031976020318A3
:1000F8007E287F288328CA1C822883282E287935C1
:10010800FE39F5007508F9002E2800307702C03056
:1001180003197602031C91289228B228013077022D
:1001280001300319760203189A289B28B228CA18A6
:100138009E289F28B2287908F5004908A03E860025
:100148008701750881004A080438F5007508CA0057
:100158004A08FE39F5007508CA00CA282030490641
:10016800031DB728B828B928C9017908F500490836
:10017800A03E86008701750881004A08FB39F50012
:100188007508CA000130F5007508C907F801F62896
:10019800F6282000111CD128D228D92891014A0814
:1001A8000238F5007508CA00F628121EDC28DD287A
:1001B800F628121202303006031DE328E428E92845
:1001C8000330F5007508B000F32804303006031D2D
:1001D800EE28EF28F3280530F5007508B0008231C5
:1001E800CF2280317E100900F928643084008530E0
:1001F8008500203086000030870020308531842536
:100208008031F801F901C901CA017E1020007E2C55
:100218008B132000C401B22A44083C3E86008701A3
:1002280001080319182919293A29330823009200CB
:100238002000320823009100200031082300950097
:10024800151827292829242920004435343E8600FA
:10025800870123001308C03F1408C13F8B172000F3
:1002680044083C3E860087018101CE2A0130C00047
:100278004008C407330823009200200032082300F6
:10028800910001302000B2070030B33D0430440231
:10029800031C4F2950291029CE2A44083C3E8600C9
:1002A80087010108031959295A297A293308230093
:1002B800920020003208230091002000310823001A
:1002C80095001514151869296A29662920004435EE
:1002D800343E8600870123001308C03F1408C13F3D
:1002E800200044083C3E8600870181010130B207A6
:1002F8000030B33D04304402031C8329842951296A
:100308008B17CE2A8B133308C3003208C200440867
:100318003C3E860087010108031993299429AC29DA
:1003280033082300920020003208230091002000A7
:100338004435343E86008701403F23009300413F07
:1003480094006430950055309600AA3096009514B4
:1003580001302000C0004008C4070130B207003057
:10036800B33D04304402031CBA29BB298B29430836
:10037800B3004208B200443023009500553096007F
:10038800AA3096009514000000008B17CE2A8B1314
:1003980044083C3E8600870101080319D429D52961
:1003A800072A330823009200200032082300910016
:1003B800413095001518E129E229DE29200044354D
:1003C800343E86008701403FC000413FC100230002
:1003D800140820004106031DF529230013082000F6
:1003E80040060319F829F929022AFF30C0004408F9
:1003F8003C3E8600870140088100072A44083C3EAD
:100408008600870181010130C0004008C40701301F
:10041800B2070030B33D04304402031C142A152AE5
:10042800CC298B17CE2A44083C3E86008701010858
:1004380003191F2A202A3C2A33082300920020008F
:1004480032082300910020004435343E860087019D
:10045800403F23009300413F9400443095005530BD
:100468009600AA3096009514000000008B17CE2A3B
:100478000130C0004008C407330823009200200060
:1004880032082300910001302000B2070030B33D4C
:1004980004304402031C512A522A172A8B17CE2AE9
:1004A80044083C3E86008701010803195C2A5D2A3E
:1004B8009A2A330823009200200032082300910072
:1004C800013095001518692A6A2A662A20004435E1
:1004D800343E8600870123001308C03F1408C13F3B
:1004E80020004435343E86008701403FC000413F2C
:1004F800C1002300140820004106031D872A230099
:1005080013082000400603198A2A8B2A942AFF30F0
:10051800C00044083C3E8600870140088100CE2A7E
:1005280044083C3E860087018101CE2A0130C00084
:100538004008C40733082300920020003208230033
:10054800910001302000B2070030B33D043044026E
:10055800031CAF2AB02A542A8B17CE2A3008C000B1
:10056800C1014108003A0319BA2ACE2A4008003AC4
:1005780003191029013A03195129033A0319862945
:10058800013A0319CB29073A0319172A013A031923
:10059800542ACE2A08008B13F401602C74083C3EC0
:1005A8008600870101080319DA2ADB2AF92A3308A9
:1005B8002300920020003208230091002000310817
:1005C800230095001518E92AEA2AE62A7435343EEC
:1005D800860087011308C03F1408C13F8B177408B1
:1005E8003C3E8600870181017D2C0130F0007008B7
:1005F800F4073308230092002000320823009100FA
:1006080001302000B2070030B33D04307402031CEF
:100618000E2B0F2BD22A7D2C74083C3E86008701B6
:1006280001080319182B192B362B330823009200C5
:100638002000320823009100200031082300950093
:1006480015141518282B292B252B7435343E8600B4
:1006580087011308C03F1408C13F74083C3E860058
:100668008701810101302000B2070030B33D04301A
:100678007402031C402B412B102B8B177D2C8B13E2
:100688003308F3003208F20074083C3E8600870104
:1006980001080319502B512B672B330823009200B4
:1006A80020003208230091007435343E860087010B
:1006B800403F9300413F94006430950055309600C8
:1006C800AA30960095140130F0007008F407013044
:1006D8002000B2070030B33D04307402031C752BB0
:1006E800762B482B7308B3007208B20044302300FD
:1006F800950055309600AA30960095140000000029
:100708008B177D2C8B1374083C3E860087010108EB
:1007180003198F2B902BBD2B330823009200200048
:100728003208230091004130950015189C2B9D2B11
:10073800992B7435343E86008701403FF000413FD5
:10074800F10014087106031DAB2B1308700603197A
:10075800AE2BAF2BB82BFF30F00074083C3E860060
:10076800870170088100BD2B74083C3E8600870114
:1007780081010130F0007008F40701302000B20751
:100788000030B33D04307402031CCB2BCC2B872BD9
:100798008B177D2C74083C3E8600870101080319DD
:1007A800D62BD72BF12B33082300920020003208D8
:1007B800230091007435343E86008701403F930042
:1007C800413F94004430950055309600AA30960079
:1007D8009514000000008B177D2C0130F000700884
:1007E800F407330823009200200032082300910008
:1007F80001302000B2070030B33D04307402031CFE
:10080800062C072CCE2B8B177D2C74083C3E8600BB
:10081800870101080319112C122C482C33082300D6
:10082800920020003208230091000130950015182D
:100838001E2C1F2C1B2C7435343E86008701130890
:10084800C03F1408C13F7435343E86008701403FDD
:10085800F000413FF10014087106031D352C130800
:1008680070060319382C392C422CFF30F00074081C
:100878003C3E86008701700881007D2C74083C3E50
:100888008600870181017D2C0130F0007008F40793
:100898003308230092002000320823009100013021
:1008A8002000B2070030B33D04307402031C5D2CF5
:1008B8005E2C092C8B177D2C20003008F000F101EC
:1008C8007108003A0319692C7D2C7008003A031945
:1008D800D22A013A0319102B033A0319432B013A80
:1008E8000319862B073A0319CE2B013A0319092C51
:1008F8007D2C080072302100990023008C010430FF
:1009080021008C0020008C01033022009D00C8309B
:100918008B000430270091008130210091001030B5
:1009280092000130200098000F302500930001301C
:100938009600193020009B003F30250091000430BC
:1009480020009C000230C5004508B00081310C2110
:10095800843120004A1DB12CB22CAD2C4A08FB3939
:10096800C5004508CA00210020082000C500450828
:10097800C800073049020318C22CC32CAD2CC7018C
:10098800C70AD32C4908A03E8600870101084806FB
:10099800C5004508C8000130C5004508C707490813
:1009A8004702031CD82CD92CC62C4908A03E860027
:1009B800870101084806031DE22CE32CAD2C210019
:1009C8002008031DE82CE92CED2C853114258431F1
:1009D800AD2C803020020318F22CF32CAD2C200013
:1009E800B201B301B0014030C5004508B100AA30DA
:1009F800C5004508BC0081310C2184312100200844
:100A08002000C500C60135084606031D0D2D340813
:100A18004506031D102D112D122DE92CAD2CF8289B
:100A2800392DF730C0004008CA0585319125853138
:100A3800632DCA15192D4A1685318F258531632DE9
:100A4800EF30C0004008CA05202DDF30C000400844
:100A5800CA05853190258531632DCA162D2D0000D4
:100A6800632D853192258531632D210021082000D1
:100A7800C0000530C036890B3E2D4008C100C201B8
:100A88004208003A0319492D632D4108003A031919
:100A9800152D013A03191D2D033A03191F2D013A8B
:100AA8000319242D073A0319292D013A0319312D69
:100AB800033A0319332D013A0319352D632D080024
:100AC80091340534913405348F3405348F3405342A
:100AD80090340534903405340034003492340534AD
:100AE8000634FF340034003455340034FF340F34F6
:100AF800FF340F34FF340F34AA3400340034003488
:100B0800FE0012001E00FE0B852D00347F34BF341A
:0E0B1800E734FC34FE34080008000800080032
:020000040001F9
:08000000FF3FFF3FFF3FFF3F00
:04000E00840FFF1A42
:00000001FF
