:0200000057287F
:100008007E1480312000111D0A280B284D289101EB
:100018009701960125001208F2001108F1007208F4
:10002800803AF00080307002031D1C28C030710235
:10003800031C1F28202835287208803AF0008130D8
:100048007002031D29280130710203182C282D285D
:100058003528F61830283128352876080138F60072
:1000680049287208803AF00080307002031D3E284B
:10007800813071020318412842284628F61C452879
:10008800462849287608FE39F60076080438F6002E
:100098005528111C502851285528910176080238F6
:1000A800F6007E1009005828F501F6017E102000A0
:1000B8008C28F4017428761D622863287428761C1D
:1000C800662867286A280314F50D6D287535FE39EA
:1000D800F5007608FB39F6000130F3007308F407E1
:1000E80008307402031C79287A285F28761D7D2839
:1000F8007E287A28761C8128822887287608FB396A
:10010800F60000308B287608FB39F600013008002D
:1001180072302100990023008C01043021008C00EA
:1001280020008C01C0308B00853021009100053003
:10013800250093000130200098008031B5208031DF
:10014800F619A728A828A1287608EF39F6008031E3
:100158005D208031003A031DB228B328AB28A128BE
:100168005728F401C2287608FB39F6007619BD280D
:10017800BE28BA280130F3007308F4077618C5289A
:10018800C628B7280C307402031CCB28CC28CF28EB
:080198007608F739F6000800B3
:020000040001F9
:08000000FF3FFF3FFF3FFF3F00
:04000E00840FFF1A42
:00000001FF
