:0200000057287F
:100008007E1480312000111D0A280B284D289101EB
:100018009701960125001208F2001108F1007208F4
:10002800803AF00080307002031D1C28C030710235
:10003800031C1F28202835287208803AF0008130D8
:100048007002031D29280130710203182C282D285D
:100058003528F41830283128352874080138F40078
:1000680049287208803AF00080307002031D3E284B
:10007800813071020318412842284628F41C45287B
:10008800462849287408FE39F40074080438F40036
:100098005528111C502851285528910174080238F8
:1000A800F4007E1009005828F301F4017E102000A6
:1000B8005D2872302100990023008C010430210052
:1000C8008C0020008C01C0308B008530210091000D
:1000D800053025009300013020009800741D752814
:1000E80076287228741C79287A287D280314F30D41
:1000F80080287335FE39F3007408FB39F400722840
:02010800572876
:020000040001F9
:08000000FF3FFF3FFF3FFF3F00
:04000E00840FFF1A42
:00000001FF
