:02000000D42802
:100008007E1480312000111D0A280B28CA2891016E
:100018009701960125001208F2001108F1007818DE
:10002800162817285D287208803AF0008030700280
:10003800031D2028C0307102031C232824283A28D5
:100048007208803AF00081307002031D2D280130BB
:1000580071020318302831283A28F818342835282E
:100068003A280130F5070030F63DD2287208803A68
:10007800F00080307002031D43288130710203189C
:10008800462847284B28F81C4A284B28D2280030F5
:1000980076020C3003197502031C53285428C9280A
:1000A80078080138F8007808FD39F800F501F601FC
:1000B800D228781C60286128D228003076020830BF
:1000C80003197502031869286A28A0287208803A5B
:1000D800F00080307002031D7328C0307102031CC9
:1000E800762877288B287208803AF00081307002D1
:1000F800031D8028013071020318832884288B2867
:10010800F818872888288B280314F70D35287208D3
:10011800803AF00080307002031D9428813071020B
:100128000318972898289C28F81C9B289C28352871
:100138007735FE39F70035287208803AF0008030AC
:100148007002031DA928C0307102031CAC28AD2819
:10015800C5287208803AF00081307002031DB62865
:10016800013071020318B928BA28C528F818BD2823
:10017800BE28C52878080438F8007808FE39F80041
:100188005A287808FB39F8005A28D228111CCD289B
:10019800CE28D228910178080238F8007E1009008C
:1001A800D528F501F601F701F8017E1020000B298A
:1001B800F401F328781DE128E228F328781CE528C3
:1001C800E628E9280314F70DEC287735FE39F700FF
:1001D8007808FB39F8000130F3007308F407083099
:1001E8007402031CF828F928DE28781DFC28FD284D
:1001F800F928781C0029012906297808FB39F80014
:1002080000300A297808FB39F800013008007230FC
:100218002100990023008C01043021008C0020006B
:100228008C01C0308B0085302100910005302500FD
:100238009300013020009800813134218131F81970
:100248002629272920297808EF39F8008031DC2071
:100258008131003A031D312932292A292029D4283D
:10026800F40141297808FB39F80078193C293D291F
:1002780039290130F3007308F4077818442945290F
:1002880036290C307402031C4A294B294E29780858
:06029800F739F800080030
:020000040001F9
:08000000FF3FFF3FFF3FFF3F00
:04000E00840FFF1A42
:00000001FF
