:020000000729CE
:100008007E1480312000111D0A280B28E328910155
:100018009701960125001208F7001108F600200044
:100028003518172818285D287708803AF500803099
:100038007502031D2128C0307602031C24282528B8
:100048003C287708803AF50081307502031D2E2878
:10005800013076020318312832283C282000B518D0
:10006800362837283C280130F5007508F907052996
:100078007708803AF50080307502031D45288130E5
:1000880076020318482849284E282000B51C4D2818
:100098004E2805290C307902031C53285428E228DD
:1000A800200035080138B5003508FD39B500F901DB
:1000B8000529351C602861280529083079020318AC
:1000C800662867289F287708803AF50080307502EF
:1000D800031D7028C0307602031C732874288928F1
:1000E8007708803AF50081307502031D7D280130BC
:1000F800760203188028812889282000B5188528C9
:10010800862889280314FA0D37287708803AF500DD
:1001180080307502031D92288130760203189528D5
:1001280096289B282000B51C9A289B2837287A35C2
:10013800FE39FA0037287708803AF50080307502D2
:10014800031DA828C0307602031CAB28AC28CC2895
:100158007708803AF50081307502031DB528013013
:1001680076020318B828B928CC282000B518BD286D
:10017800BE28CC287808A03E860087017A0881002E
:1001880035080438B5003508FE39B500F8015B2894
:1001980020307806031DD128D228D328F801780802
:1001A800A03E860087017A08810020003508FB39C7
:1001B800B5000130F5007508F8075B280529111C02
:1001C800E628E728EC28910135080238B50005290A
:1001D800121EEF28F0280529121202302006031DEE
:1001E800F628F728FA280330A00002290430200650
:1001F800031DFF28002902290530A0008231CA22E8
:1002080080317E10090008298430840084308500FC
:10021800203086000030870010308431A0248131DE
:10022800F801F901FA01B5017E102000662C8B1344
:100238002000B401AD2A34082C3E8600870101084D
:10024800031927292829432923082300920020007D
:10025800220823009100200021082300950015188A
:1002680036293729332920003435243E8600870172
:1002780023001308C03F1408C13F8B17C92A013057
:10028800B0003008B4072308230092002000220899
:100298002300910001302000A2070030A33D043064
:1002A8003402031C582959291F29C92A34082C3E0D
:1002B8008600870101080319622963297C2923081C
:1002C800230092002000220823009100200021082A
:1002D800230095001518712972296E2920003435DC
:1002E800243E8600870123001308C03F1408C13F3D
:1002F80001302000A2070030A33D04303402031C63
:10030800862987295A298B17C92A8B132308B300F2
:100318002208B20034082C3E860087010108031920
:1003280096299729AF292308230092002000220844
:100338002300910020003435243E86008701403F89
:1003480023009300413F9400643095005530960097
:10035800AA309600951401302000B0003008B40788
:100368000130A2070030A33D04303402031CBD292C
:10037800BE298E293308A3003208A2004430230086
:10038800950055309600AA30960095148B17C92A07
:100398008B1334082C3E8600870101080319D529E0
:1003A800D629062A230823009200200022082300C9
:1003B8009100413095001518E229E329DF29200032
:1003C8003435243E86008701403FB000413FB100EC
:1003D8002300140820003106031DF6292300130802
:1003E800200030060319F929FA29012A34082C3E7D
:1003F80086008701FF308100062A34082C3E8600DB
:10040800870181010130B0003008B4070130A2072C
:100418000030A33D04303402031C132A142ACD29CA
:100428008B17C92A34082C3E860087010108031956
:100438001E2A1F2A392A2308230092002000220896
:100448002300910020003435243E86008701403F78
:1004580023009300413F94004430950055309600A6
:10046800AA30960095148B17C92A0130B0003008BD
:10047800B4072308230092002000220823009100DB
:1004880001302000A2070030A33D04303402031CD1
:100498004E2A4F2A162A8B17C92A34082C3E860062
:1004A800870101080319592A5A2A952A2308230083
:1004B80092002000220823009100013095001518B1
:1004C800662A672A632A20003435243E860087017D
:1004D80023001308C03F1408C13F20003435243ED0
:1004E80086008701403FB000413FB1002300140857
:1004F80020003106031D842A23001308200030063B
:100508000319872A882A8F2A34082C3E86008701F7
:10051800FF308100C92A34082C3E860087018101FA
:10052800C92A0130B0003008B4072308230092001C
:10053800200022082300910001302000A20700308B
:10054800A33D04303402031CAA2AAB2A512A8B1774
:10055800C92A2008B000B1013108003A0319B52AA8
:10056800C92A3008003A03191F29013A03195A29E0
:10057800033A03198929013A0319CC29073A0319BF
:10058800162A013A0319512AC92A08008B13F401C3
:10059800482C74082C3E8600870101080319D52AC7
:1005A800D62AEF2A230823009200200022082300DD
:1005B800910020002108230095001518E42AE52A57
:1005C800E12A7435243E860087011308C03F1408C9
:1005D800C13F8B17652C0130F0007008F407230821
:1005E80023009200200022082300910001302000FF
:1005F800A2070030A33D04307402031C042B052B12
:10060800CD2A652C74082C3E860087010108031941
:100618000E2B0F2B262B23082300920020002208E4
:1006280023009100200021082300950015181D2B98
:100638001E2B1A2B7435243E860087011308C03FF1
:100648001408C13F01302000A2070030A33D043048
:100658007402031C302B312B062B8B17652C8B1344
:100668002308F3002208F20074082C3E8600870154
:1006780001080319402B412B572B23082300920014
:1006880020002208230091007435243E860087014B
:10069800403F9300413F94006430950055309600E8
:1006A800AA30960095140130F0007008F407013064
:1006B8002000A2070030A33D04307402031C652B00
:1006C800662B382B7308A3007208A200443023005D
:1006D800950055309600AA30960095148B17652C16
:1006E8008B1374082C3E86008701010803197D2BA3
:1006F8007E2BA92B23082300920020002208230028
:1007080091004130950015188A2B8B2B872B743557
:10071800243E86008701403FF000413FF100140865
:100728007106031D992B1308700603199C2B9D2B2A
:10073800A42B74082C3E86008701FF308100A92B6A
:1007480074082C3E8600870181010130F000700892
:10075800F40701302000A2070030A33D04307402E2
:10076800031CB72BB82B752B8B17652C74082C3EE4
:100778008600870101080319C22BC32BDB2B230832
:100788002300920020002208230091007435243EA3
:1007980086008701403F9300413F94004430950014
:1007A80055309600AA30960095148B17652C0130A9
:1007B800F0007008F40723082300920020002208A4
:1007C8002300910001302000A2070030A33D04302F
:1007D8007402031CF02BF12BBA2B8B17652C7408B1
:1007E8002C3E8600870101080319FB2BFC2B302CBB
:1007F80023082300920020002208230091000130E2
:1008080095001518082C092C052C7435243E8600F3
:1008180087011308C03F1408C13F7435243E860081
:100828008701403FF000413FF10014087106031DA5
:100838001F2C130870060319222C232C2A2C740849
:100848002C3E86008701FF308100652C74082C3E01
:10085800860087018101652C0130F0007008F407DB
:100868002308230092002000220823009100013071
:100878002000A2070030A33D04307402031C452C5D
:10088800462CF32B8B17652C20002008F000F10173
:100898007108003A0319512C652C7008003A0319A5
:1008A800CD2A013A0319062B033A0319332B013ACF
:1008B8000319742B073A0319BA2B013A0319F32BBE
:1008C800652C080072302100990023008C01043047
:1008D80021008C0020008C01C0308B008530210065
:1008E800910010309200053025009300013020005F
:1008F80098000230A00081311B218431822C072905
:100908000634FF340034003401340034FF340F342B
:10091800FF340F34FF340F34AA3400340034003469
:10092800003400347F348034BF34C034E734E834D2
:10093800FC34FD34FE34FF34FE0012001E00FE0BB2
:0E094800A12C00347F34BF34E734FC34FE347D
:020000040001F9
:08000000FF3FFF3FFF3FFF3F00
:04000E00840FFF1A42
:00000001FF
