:02000000452891
:100008007E1480312000111D0A280B2839289101FF
:1000180025001208F5001108F4007035F000710D84
:10002800F1007508803AF30080307302031D1E2822
:1000380060307402031C2128222835287508803A6C
:10004800F30080307302031D2B28813074020318DB
:100058002E282F28352801307004F0000030710454
:10006800F1002000970196014328111C3C283D28E7
:100078004328910172080238F200970196017E1018
:1000880009004628F001F101F2017E1020004C28F9
:1000980072302100990023008C01023021008C006D
:1000A80020008C01C0308B00853021009100053084
:0E00B8002500930001302000980061284528A3
:020000040001F9
:08000000FF3FFF3FFF3FFF3F00
:04000E00840FFF1A42
:00000001FF
