:020000004E2888
:100008007E1480312000111D0A280B2843289101F5
:1000180025001208F2001108F1007208803AF00079
:1000280080307002031D1A2860307102031C1D28DD
:100038001E282F287208803AF00080307002031DB5
:1000480027288130710203182A282B282F287308A3
:100058000438F3003F287208803AF00080307002BC
:10006800031D382881307102031C3B283C283F2897
:100078007308FB39F3002000970196014C28111CE6
:10008800462847284C28910173080238F3003F2876
:100098007E1009004F28F3017E102000532872308B
:1000A8002100990023008C01023021008C002000DF
:1000B8008C01C0308B00853021009100053025006F
:1000C8009300013020009800731D6B286C286E285F
:0A00D8008C1668288C1268284E2848
:020000040001F9
:08000000FF3FFF3FFF3FFF3F00
:04000E00840FFF1A42
:00000001FF
