:02000000E228F4
:100008007E1480310B1C09280A28BD2820001708F7
:10001800F7001608F60096019701270093012000C3
:100028005D18172818284F2800307702C0300319A8
:100038007602031C2028212833280130770201305A
:1000480003197602031829282A283328DD182D28B1
:100058002E2833280130F5007508F807E02800300D
:10006800770281300319760203183B283C28402880
:10007800DD1C3F284028E0280C307802031C452866
:100088004628BC285D080138DD005D08FD39DD0023
:10009800F801F901E0285D1C52285328E0280830AF
:1000A8007802031858285928832800307702C0306E
:1000B80003197602031C612862287228013077022E
:1000C80001300319760203186A286B287228DD1894
:1000D8006E286F2872280314F90D2E280030770235
:1000E80081300319760203187A287B287F28DD1CC3
:1000F8007E287F282E287935FE39F9002E280030F1
:100108007702C03003197602031C8B288C28A62896
:1001180001307702013003197602031894289528D4
:10012800A628DD1898289928A6285C08A03E8600ED
:100138008701790881005D080438DD005D08FE3913
:10014800DD00BA2820305C06031DAB28AC28AD289A
:10015800DC015C08A03E86008701790881005D0803
:10016800FB39DD000130F5007508DC07F801E028EF
:10017800E0282000111CC128C228C72891015D0869
:100188000238DD00E028121ECA28CB28E028121207
:1001980002304C06031DD128D228D5280330CC00C4
:1001A800DD2804304C06031DDA28DB28DD2805305D
:1001B800CC008231B52280317E100900E3289930C5
:1001C8008400853085004C30860000308700103070
:1001D8008531A9258031F801F901DC01DD017E10A6
:1001E8002000602C8B132000A401982A2408583E74
:1001F80086008701010803190229032924294F08C9
:100208002300920020004E082300910020004D0892
:10021800230095001518112912290E2920002435CC
:10022800503E8600870123001308C03F1408C13FD1
:100238008B1720002408583E860087018101B42AC4
:100248000130A0002008A4074F08230092002000D6
:100258004E082300910001302000CE070030CF3D2A
:1002680004302402031C39293A29FA28B42A24081C
:10027800583E860087010108031943294429642947
:100288004F082300920020004E0823009100200010
:100298004D08230095001514151853295429502981
:1002A80020002435503E8600870123001308C03FF4
:1002B8001408C13F20002408583E860087018101A8
:1002C8000130CE070030CF3D04302402031C6D29D5
:1002D8006E293B298B17B42A8B134F08A3004E08AD
:1002E800A2002408583E86008701010803197D29C9
:1002F8007E2996294F082300920020004E082300EB
:10030800910020002435503E86008701403F23009D
:100318009300413F94006430950055309600AA3010
:100328009600951401302000A0002008A407013091
:10033800CE070030CF3D04302402031CA429A52990
:1003480075292308CF002208CE00443023009500E9
:1003580055309600AA3096009514000000008B17BF
:10036800B42A8B132408583E860087010108031914
:10037800BE29BF29EF294F082300920020004E080C
:1003880023009100413095001518CB29CC29C829A4
:1003980020002435503E86008701403FA000413FA1
:1003A800A1002300140820002106031DDF292300D3
:1003B8001308200020060319E229E329EA29240862
:1003C800583E86008701FF308100EF292408583EF7
:1003D8008600870181010130A0002008A4070130B0
:1003E800CE070030CF3D04302402031CFC29FD2930
:1003F800B6298B17B42A2408583E860087010108BD
:100408000319072A082A242A4F08230092002000EB
:100418004E082300910020002435503E86008701B5
:10042800403F23009300413F9400443095005530ED
:100438009600AA3096009514000000008B17B42A85
:100448000130A0002008A4074F08230092002000D4
:100458004E082300910001302000CE070030CF3D28
:1004680004302402031C392A3A2AFF298B17B42A9C
:100478002408583E8600870101080319442A452AA2
:10048800802A4F082300920020004E082300910084
:10049800013095001518512A522A4E2A2000243579
:1004A800503E8600870123001308C03F1408C13F4F
:1004B80020002435503E86008701403FA000413F80
:1004C800A1002300140820002106031D6F2A230021
:1004D8001308200020060319722A732A7A2A24088E
:1004E800583E86008701FF308100B42A2408583E10
:1004F800860087018101B42A0130A0002008A407E2
:100508004F082300920020004E082300910001307C
:100518002000CE070030CF3D04302402031C952A6A
:10052800962A3C2A8B17B42A4C08A000A10121085E
:10053800003A0319A02AB42A2008003A0319FA2815
:10054800013A03193B29033A03197029013A03199F
:10055800B529073A0319FF29013A03193C2AB42A95
:1005680008008B13F401422C7408583E860087015A
:1005780001080319C02AC12ADF2A4F082300920064
:1005880020004E082300910020004D08230095000C
:100598001518CF2AD02ACC2A7435503E86008701F8
:1005A8001308C03F1408C13F8B177408583E8600D3
:1005B800870181015F2C0130F0007008F4074F08B3
:1005C8002300920020004E082300910001302000F3
:1005D800CE070030CF3D04307402031CF42AF52AFC
:1005E800B82A5F2C7408583E860087010108031951
:1005F800FE2AFF2A1C2B4F082300920020004E08D9
:100608002300910020004D082300950015141518AB
:100618000E2B0F2B0B2B7435503E860087011308C9
:10062800C03F1408C13F7408583E86008701810105
:1006380001302000CE070030CF3D04307402031C87
:10064800262B272BF62A8B175F2C8B134F08F300CA
:100658004E08F2007408583E860087010108031905
:10066800362B372B4D2B4F082300920020004E08C5
:10067800230091007435503E86008701403F930067
:10068800413F94006430950055309600AA3096009A
:1006980095140130F0007008F40701302000CE07EF
:1006A8000030CF3D04307402031C5B2B5C2B2E2BD7
:1006B8007308CF007208CE004430230095005530EF
:1006C8009600AA3096009514000000008B175F2C46
:1006D8008B137408583E8600870101080319752B8F
:1006E800762BA12B4F082300920020004E082300F0
:1006F8009100413095001518822B832B7F2B743580
:10070800503E86008701403FF000413FF100140849
:100718007106031D912B130870060319942B952B52
:100728009C2B7408583E86008701FF308100A12B5E
:100738007408583E8600870181010130F000700876
:10074800F40701302000CE070030CF3D043074029A
:10075800031CAF2BB02B6D2B8B175F2C7408583EE6
:100768008600870101080319BA2BBB2BD52B4F082C
:100778002300920020004E08230091007435503E5B
:1007880086008701403F9300413F94004430950024
:1007980055309600AA3096009514000000008B177B
:1007A8005F2C0130F0007008F4074F082300920016
:1007B80020004E082300910001302000CE070030B1
:1007C800CF3D04307402031CEA2BEB2BB22B8B17A2
:1007D8005F2C7408583E8600870101080319F52B21
:1007E800F62B2A2C4F082300920020004E082300E5
:1007F8009100013095001518022C032CFF2B74353D
:10080800503E860087011308C03F1408C13F743565
:10081800503E86008701403FF000413FF100140838
:100828007106031D192C1308700603191C2C1D2CA6
:10083800242C7408583E86008701FF3081005F2C05
:100848007408583E8600870181015F2C0130F00052
:100858007008F4074F082300920020004E08230078
:10086800910001302000CE070030CF3D04307402E3
:10087800031C3F2C402CED2B8B175F2C20004C08C1
:10088800F000F1017108003A03194B2C5F2C700835
:10089800003A0319B82A013A0319F62A033A031948
:1008A800292B013A03196C2B073A0319B22B013A89
:1008B8000319ED2B5F2C08007230210099002300EA
:1008C8008C01043021008C0020008C0103302200B0
:1008D8009D00C8308B000430270091008130210032
:1008E8009100103092000130200098000F30250050
:1008F800930001309600193020009B0025009101DB
:10090800043020009C000230CC008031F620843175
:1009180020005D1D902C912C8C2C5C08CB002100B4
:1009280020082000C9005D08FB39DD000130DC0229
:100938005C08293E860087015C08A03E840085018A
:10094800000881005C08031DAA2CAB2C9A2C0730E8
:100958004B020318B02CB12C8C2CA0308600003030
:100968008700CA01CA0AC32C4A08293E86008701A3
:1009780001084906C9000130A7002708CA074B0823
:100988004A02031CC82CC92CB82C4B08A03E860070
:10099800870101084906031DD22CD32C8C2C290869
:1009A800031DD72CD82CDF2C4B30A20029308531E1
:1009B800062584318C2C803029020318E42CE52C80
:1009C8008C2CCE01CF01CC014030CD00AA30D8000C
:1009D8008031F620843120002908A700A801510899
:1009E8002806031DF92C50082706031DFC2CFD2C96
:1009F800042D4B30A20029308531062584318C2CFA
:100A08008C2CE2282000A6002D2DF730A300230807
:100A1800DD052208A00026088531B4258531582D2A
:100A2800DD15582D5D16582DEF30A3002308DD0580
:100A3800582DDF30A3002308DD05582DDD16582D6D
:100A48000000582D2208A00026088531B5258531DB
:100A5800582D260A860087010108A3000530A33611
:100A6800890B332D2308A400A5012508003A031992
:100A78003E2D582D2408003A0319092D013A03196F
:100A8800142D033A0319162D013A0319182D073AA4
:100A980003191D2D013A0319222D033A0319242D98
:100AA800013A0319262D582D0800003400347F34EC
:100AB8008034BF34C034E734E834FC34FD34FE34C9
:100AC800FF3400340034003400340034003400347F
:100AD800003400340034003400340034003400346E
:100AE800003400340034003400340034003400345E
:100AF800003400340034003400340034003400344E
:100B0800003400340034003400340034003400343D
:100B1800003400340034003400340034003400342D
:100B2800003400340034003400340634FF34003418
:100B3800003401340034FF340F34FF340F34FF34F1
:100B48000F34AA34003400340034FE0012001E00B2
:100B5800FE0BAA2D00347F34BF34E734FC34FE3456
:040B68000800080079
:020000040001F9
:08000000FF3FFF3FFF3FFF3F00
:04000E00840FFF1A42
:00000001FF
