:02000000AC282A
:100008007E1480310B1C922820001708F700160870
:10001800F600960197012700930120005D183E28FD
:1000280000307702C03003197602031C28280130FB
:100038007702013003197602031CDD1828280130E5
:10004800F5007508F807AA280030770281300319EF
:10005800760203183128DD1CAA280C307802031C0C
:10006800AA285D080138DD005D08FD39DD00F801CA
:10007800F901AA285D1CAA28083078020318632809
:1000880000307702C03003197602031C562801306D
:100098007702013003197602031CDD185628031471
:1000A800F90D2328003077028130031976020318EE
:1000B8005F28DD1C23287935FE39F9002328003014
:1000C8007702C03003197602031C7F2801307702BB
:1000D800013003197602031CDD187F285C08A03E56
:1000E80086008701790881005D080438DD005D0815
:1000F800FE39DD00902820305C060319DC015C081D
:10010800A03E86008701790881005D08FB39DD0083
:100118000130F5007508DC07F801AA282000111C39
:100128009A2891015D080238DD00AA28121EAA2823
:10013800121202304C06031DA3280330A8280430ED
:100148004C06031DA9280530CC0059227E10090051
:10015800AD28FB308400843085004C3086000030A8
:10016800870010300B25F801F901DC01DD017E1054
:100178002000E02B8B132000A4013C2A2408583EC1
:100188008600870101080319E8284F082300920018
:1001980020004E082300910020004D082300950000
:1001A8001518D42820002435503E860087012300E6
:1001B8001308C03F1408C13F8B1720002408583E7D
:1001C80086008701810108000130A0002008A407EB
:1001D8004F082300920020004E08230091000130B0
:1001E8002000CE070030CF3D043024020318080059
:1001F800C2282408583E86008701010803192229CD
:100208004F082300920020004E0823009100200090
:100218004D082300950015141518102920002435C1
:10022800503E8600870123001308C03F1408C13FD1
:1002380020002408583E8600870181010130CE073E
:100248000030CF3D04302402031CFD288B17080022
:100258008B134F08A3004E08A2002408583E8600BE
:1002680087010108031950294F0823009200200034
:100278004E082300910020002435503E8600870157
:10028800403F23009300413F94006430950055306F
:100298009600AA309600951401302000A00020088E
:1002A800A4070130CE070030CF3D04302402031CE0
:1002B80031292308CF002208CE00443023009500BE
:1002C80055309600AA3096009514000000008B1750
:1002D80008008B132408583E86008701010803197B
:1002E800A1294F082300920020004E082300910006
:1002F8004130950015187E2920002435503E86008F
:100308008701403FA000413FA100230014082000BE
:100318002106031D93292300130820002006031932
:100328009C292408583E86008701FF308100A129B6
:100338002408583E8600870181010130A00020086A
:10034800A4070130CE070030CF3D04302402031C3F
:100358006E298B1708002408583E8600870101087B
:100368000319D2294F082300920020004E082300C9
:10037800910020002435503E86008701403F23002D
:100388009300413F94004430950055309600AA30C0
:1003980096009514000000008B1708000130A0009B
:1003A8002008A4074F082300920020004E082300CD
:1003B800910001302000CE070030CF3D04302402E8
:1003C800031CAF298B1708002408583E86008701B4
:1003D80001080319262A4F082300920020004E081E
:1003E80023009100013095001518F82920002435C4
:1003F800503E8600870123001308C03F1408C13F00
:1004080020002435503E86008701403FA000413F30
:10041800A1002300140820002106031D172A230029
:100428001308200020060319202A2408583E8600B5
:100438008701FF30810008002408583E86008701A4
:10044800810108000130A0002008A4074F082300FC
:10045800920020004E082300910001302000CE07B2
:100468000030CF3D04302402031CE8298B17080014
:100478004C08A000A1012108003A0319442A582A6F
:100488002008003A0319C228013A0319FD28033A43
:1004980003192C29013A03196D29073A0319AF29C1
:1004A800013A0319E829582A08008B13F401C22BD2
:1004B8007408583E86008701010803197F2A4F08EF
:1004C8002300920020004E082300910020004D08D0
:1004D8002300950015186E2A7435503E8600870152
:1004E8001308C03F1408C13F8B177408583E860094
:1004F8008701810108000130F0007008F4074F08F7
:100508002300920020004E082300910001302000B3
:10051800CE070030CF3D04307402031808005C2A6F
:100528007408583E8600870101080319B62A4F0847
:100538002300920020004E082300910020004D085F
:100548002300950015141518A72A7435503E860007
:1005580087011308C03F1408C13F7408583E86003D
:100568008701810101302000CE070030CF3D0430E3
:100578007402031C942A8B1708008B134F08F3008E
:100588004E08F2007408583E8600870101080319D6
:10059800E32A4F082300920020004E082300910010
:1005A8007435503E86008701403F9300413F9400D8
:1005B8006430950055309600AA30960095140130A5
:1005C800F0007008F40701302000CE070030CF3D5E
:1005D80004307402031CC62A7308CF007208CE00C8
:1005E80044302300950055309600AA3096009514A3
:1005F800000000008B1708008B137408583E860013
:100608008701010803192F2B4F08230092002000AF
:100618004E0823009100413095001518112B7435B0
:10062800503E86008701403FF000413FF10014082A
:100638007106031D212B1308700603192A2B740851
:10064800583E86008701FF3081002F2B7408583EE2
:100658008600870181010130F0007008F40701303D
:100668002000CE070030CF3D04307402031C012B5C
:100678008B1708007408583E860087010108031983
:100688005F2B4F082300920020004E0823009100A2
:100698007435503E86008701403F9300413F9400E7
:1006A8004430950055309600AA3096009514000005
:1006B80000008B1708000130F0007008F4074F089D
:1006C8002300920020004E082300910001302000F2
:1006D800CE070030CF3D04307402031C3E2B8B172D
:1006E80008007408583E8600870101080319AC2BDE
:1006F8004F082300920020004E082300910001308B
:1007080095001518852B7435503E8600870113080F
:10071800C03F1408C13F7435503E86008701403FF2
:10072800F000413FF10014087106031D9D2B1308CA
:1007380070060319A62B7408583E86008701FF30FF
:10074800810008007408583E86008701810108006E
:100758000130F0007008F4074F08230092002000D1
:100768004E082300910001302000CE070030CF3D15
:1007780004307402031C752B8B17080020004C08EA
:10078800F000F1017108003A0319CB2BDF2B700838
:10079800003A03195C2A013A0319942A033A031907
:1007A800C12A013A0319002B073A03193E2B013AD3
:1007B8000319752BDF2B08007230210099002300E4
:1007C8008C01043021008C0020008C0103302200B1
:1007D8009D00C8308B000430270091008130210033
:1007E8009100103092000130200098000F30250051
:1007F800930001309600193020009B0025009101DC
:10080800043020009C000230CC00BE2020005D1D7A
:100818000A2C5C08CB00210020082000C9005D08D4
:10082800FB39DD000130DC025C08293E86008701C7
:100838005C08A03E84008501000881005C08031D57
:10084800162C07304B0203180A2CA0308600003003
:100858008700CA01CA0A4B084A0203183F2C4A08F3
:10086800293E8600870101084906C9000130A70012
:100878002708CA072F2C4B08A03E860087010108CD
:100888004906031D0A2C2908031D4F2C4B30A200D2
:1008980029306C240A2C8030290203180A2CCE0136
:1008A800CF01CC014030CD00AA30D800BE202000B6
:1008B8002908A700A80151082806031D652C50081F
:1008C8002706031D0A2C4B30A20029306C240A2C61
:1008D8002000A6008F2CF730A3002308DD0522088E
:1008E800A000260816250800DD1508005D1608007A
:1008F800EF30A3002308DD050800DF30A30023083C
:10090800DD050800DD160800000008002208A00028
:10091800260817250800260A860087010108A30073
:100928000530A336890B952C2308A400A5012508BA
:10093800003A0319A02CBA2C2408003A03196F2C8A
:10094800013A0319782C033A03197A2C013A03194E
:100958007C2C073A0319812C013A0319862C033A97
:100968000319882C013A03198A2CBA2C0800003480
:1009780000347F348034BF34C034E734E834FC3486
:10098800FD34FE34FF3400340034003400340034C5
:1009980000340034003400340034003400340034AF
:1009A800003400340034003400340034003400349F
:1009B800003400340034003400340034003400348F
:1009C800003400340034003400340034003400347F
:1009D800003400340034003400340034003400346F
:1009E8000034003400340034003400340034063459
:1009F800FF340034003401340034FF340F34FF3442
:100A08000F34FF340F34AA34003400340034FE00AD
:100A180012001E00FE0B0C2D00347F34BF34E73467
:080A2800FC34FE340800080054
:020000040001F9
:08000000FF3FFF3FFF3FFF3F00
:04000E00840FFF1A42
:00000001FF
