:02000000AC282A
:100008007E1480310B1C922820001708F700160870
:10001800F600960197012700930120005D183E28FD
:1000280000307702C03003197602031C28280130FB
:100038007702013003197602031CDD1828280130E5
:10004800F5007508F807AA280030770281300319EF
:10005800760203183128DD1CAA280C307802031C0C
:10006800AA285D080138DD005D08FD39DD00F801CA
:10007800F901AA285D1CAA28083078020318632809
:1000880000307702C03003197602031C562801306D
:100098007702013003197602031CDD185628031471
:1000A800F90D2328003077028130031976020318EE
:1000B8005F28DD1C23287935FE39F9002328003014
:1000C8007702C03003197602031C7F2801307702BB
:1000D800013003197602031CDD187F285C08A03E56
:1000E80086008701790881005D080438DD005D0815
:1000F800FE39DD00902820305C060319DC015C081D
:10010800A03E86008701790881005D08FB39DD0083
:100118000130F5007508DC07F801AA282000111C39
:100128009A2891015D080238DD00AA28121EAA2823
:10013800121202304C06031DA3280330A8280430ED
:100148004C06031DA9280530CC0058227E10090052
:10015800AD28F8308400843085004C3086000030AB
:10016800870010300825F801F901DC01DD017E1057
:100178002000DE2B8B13A4013B2A2408583E86005E
:10018800870101080319E7284F082300920020007F
:100198004E082300910020004D08230095001518F3
:1001A800D32820002435503E8600870123001308F9
:1001B800C03F1408C13F8B1720002408583E860012
:1001C8008701810108000130A0002008A4074F081A
:1001D8002300920020004E082300910001302000E7
:1001E800CE070030CF3D0430240203180800C12890
:1001F8002408583E860087010108031921294F0861
:100208002300920020004E082300910020004D0892
:1002180023009500151415180F2920002435503E89
:100228008600870123001308C03F1408C13F20003F
:100238002408583E8600870181010130CE0700302E
:10024800CF3D04302402031CFC288B1708008B13B5
:100258004F08A3004E08A2002408583E86008701D4
:10026800010803194F294F082300920020004E0867
:100278002300910020002435503E86008701403F2E
:1002880023009300413F9400643095005530960058
:10029800AA309600951401302000A0002008A40779
:1002A8000130CE070030CF3D04302402031C302932
:1002B8002308CF002208CE00443023009500553093
:1002C8009600AA3096009514000000008B170800CD
:1002D8008B132408583E8600870101080319A029BA
:1002E8004F082300920020004E082300910041305F
:1002F800950015187D2920002435503E8600870179
:10030800403FA000413FA10023001408200021061F
:10031800031D9229230013082000200603199B2996
:100328002408583E86008701FF308100A029240850
:10033800583E8600870181010130A0002008A407EB
:100348000130CE070030CF3D04302402031C6D2954
:100358008B1708002408583E8600870101080319F6
:10036800D1294F082300920020004E082300910055
:1003780020002435503E86008701403F230093002B
:10038800413F94004430950055309600AA309600BD
:100398009514000000008B1708000130A000200809
:1003A800A4074F082300920020004E082300910064
:1003B80001302000CE070030CF3D04302402031C5A
:1003C800AE298B1708002408583E860087010108CB
:1003D8000319252A4F082300920020004E08230005
:1003E8009100013095001518F72920002435503E5A
:1003F8008600870123001308C03F1408C13F20006E
:100408002435503E86008701403FA000413FA100AF
:100418002300140820002106031D162A23001308B0
:100428002000200603191F2A2408583E8600870149
:10043800FF30810008002408583E860087018101AA
:1004480008000130A0002008A4074F0823009200EC
:1004580020004E082300910001302000CE07003014
:10046800CF3D04302402031CE7298B1708004C08F1
:10047800A000A1012108003A0319432A572A20089D
:10048800003A0319C128013A0319FC28033A031951
:100498002B29013A03196C29073A0319AE29013AA5
:1004A8000319E729572A08008B13F401C12B740894
:1004B800583E86008701010803197E2A4F08230049
:1004C800920020004E082300910020004D082300D0
:1004D800950015186D2A7435503E8600870113085B
:1004E800C03F1408C13F8B177408583E8600870127
:1004F800810108000130F0007008F4074F0823005C
:10050800920020004E082300910001302000CE0701
:100518000030CF3D04307402031808005B2A7408C9
:10052800583E8600870101080319B52A4F082300A1
:10053800920020004E082300910020004D0823005F
:10054800950015141518A62A7435503E86008701A3
:100558001308C03F1408C13F7408583E860087013D
:10056800810101302000CE070030CF3D04307402F5
:10057800031C932A8B1708008B134F08F3004E08AF
:10058800F2007408583E8600870101080319E22A20
:100598004F082300920020004E0823009100743574
:1005A800503E86008701403F9300413F94006430ED
:1005B800950055309600AA30960095140130F00049
:1005C8007008F40701302000CE070030CF3D04301A
:1005D8007402031CC52A7308CF007208CE00443089
:1005E8002300950055309600AA3096009514000017
:1005F80000008B1708008B137408583E860087018B
:10060800010803192E2B4F082300920020004E08E2
:1006180023009100413095001518102B7435503E79
:1006280086008701403FF000413FF1001408710641
:10063800031D202B130870060319292B7408583E34
:1006480086008701FF3081002E2B7408583E8600F3
:10065800870181010130F0007008F40701302000A3
:10066800CE070030CF3D04307402031C002B8B17DB
:1006780008007408583E86008701010803195E2B9C
:100688004F082300920020004E0823009100743583
:10069800503E86008701403F9300413F940044301C
:1006A800950055309600AA30960095140000000079
:1006B8008B1708000130F0007008F4074F0823007A
:1006C800920020004E082300910001302000CE0740
:1006D8000030CF3D04307402031C3D2B8B170800FB
:1006E8007408583E8600870101080319AB2B4F0890
:1006F8002300920020004E0823009100013095004D
:100708001518842B7435503E860087011308C03FA6
:100718001408C13F7435503E86008701403FF00001
:10072800413FF10014087106031D9C2B1308700645
:100738000319A52B7408583E86008701FF308100F5
:1007480008007408583E86008701810108000130BE
:10075800F0007008F4074F082300920020004E08AC
:100768002300910001302000CE070030CF3D043037
:100778007402031C742B8B1708004C08F000F1015D
:100788007108003A0319C92BDD2B7008003A0319C8
:100798005B2A013A0319932A033A0319C02A013A3A
:1007A8000319FF2A073A03193D2B013A0319742B41
:1007B800DD2B080072302100990023008C010430E1
:1007C80021008C0020008C01033022009D00C830DD
:1007D8008B000430270091008130210091001030F7
:1007E80092000130200098000F302500930001305E
:1007F8009600193020009B0025009101043020004C
:100808009C000230CC00BE2020005D1D082C5C0836
:10081800CB00210020082000C9005D08FB39DD005D
:100828000130DC025C08293E860087015C08A03E96
:1008380084008501000881005C08031D142C073022
:100848004B020318082CA030860000308700CA012C
:10085800CA0A4B084A0203183D2C4A08293E86005A
:10086800870101084906C9000130A7002708CA07FF
:100878002D2C4B08A03E8600870101084906031D60
:10088800082C2908031D4D2C4B30A20029306A245E
:10089800082C803029020318082CCE01CF01CC0186
:1008A8004030CD00AA30D800BE2020002908A7007B
:1008B800A80151082806031D632C50082706031DAC
:1008C800082C4B30A20029306A24082CA6008C2C56
:1008D800F730A3002308DD052208A0002608132509
:1008E8000800DD1508005D160800EF30A300230896
:1008F800DD050800DF30A3002308DD050800DD164C
:100908000800000008002208A00026081425080096
:10091800260A860087010108A3000530A336890B43
:10092800922C2308A400A5012508003A03199D2C40
:10093800B72C2408003A03196C2C013A0319752CBA
:10094800033A0319772C013A0319792C073A03194A
:100958007E2C013A0319832C033A0319852C013A9A
:100968000319872CB72C0800003400347F348034F6
:10097800BF34C034E734E834FC34FD34FE34FF348B
:1009880000340034003400340034003400340034BF
:1009980000340034003400340034003400340034AF
:1009A800003400340034003400340034003400349F
:1009B800003400340034003400340034003400348F
:1009C800003400340034003400340034003400347F
:1009D800003400340034003400340034003400346F
:1009E80000340034003400340634FF34003400345A
:1009F80001340034FF340F34FF340F34FF340F3424
:100A0800AA34003400340034FE0012001E00FE0B2D
:100A1800092D00347F34BF34E734FC34FE34080039
:020A28000800C4
:020000040001F9
:08000000FF3FFF3FFF3FFF3F00
:04000E00840FFF1A42
:00000001FF
